:020000040000FA
:100000000C9435010C9466010C9466010C94660105
:100010000C9466010C9466010C9466010C946601C4
:100020000C9466010C9466010C9466010C946601B4
:100030000C9466010C9466010C9466010C946601A4
:100040000C9466010C9466010C9466010C94660194
:100050000C9466010C9466010C9466010C944209A0
:100060000C9466010C940C090C94E2080C94660143
:100070000C9466010C9466010C9466010C94660164
:100080000C9466010C9466010C9466010C94660154
:100090000C9466010C9466010C9466010C94660144
:1000A0000C9466010C9466010C9466010C94660134
:1000B0000C9466010C9466010C9466010C94660124
:1000C0000C9466010C9466010C9466010C94660114
:1000D0000C9466010C9466010C9466010C94660104
:1000E0000C9466010C94C6010C94A4010C94CF02EC
:1000F0000C9495010C94C8020C94CC020C94FF0251
:100100000C94FA020C94D9020C9468010C94E3024A
:100110000C94E7020C948C090C94F5020C94FE01EB
:100120000C94C4020C94F1020C944B020C94BA028D
:100130000C94C0020C94ED020C94D5020C94B801FE
:100140000C94FB020C94DF02000021002400270025
:100150002A002D00300033000101000004010701D6
:100160000A0100002200250028002B002E0031008B
:10017000340002010000050108010B01000020000D
:100180002300260029002C002F003200000100006F
:10019000030106010901050505050705080808080A
:1001A000020202020A0A080804040404010101010F
:1001B000010101010303030303030303040707070A
:1001C0000C0C0C0C0C0C0C0C0202020206060606AF
:1001D000060606060B0B0B0B0B0B0B0B010210207C
:1001E000200808102040102040800201020108046D
:1001F0000201010204081020408080402010080401
:100200000201800402018040201008040201080459
:10021000020101020408102040800102040810209D
:10022000408000000A0B02090C0D0E0807030401B0
:1002300000000000000000000000000000000000BE
:10024000000000000000000000000000000012118B
:10025000100000000000000000000000000000008E
:1002600000000000000000008C0911241FBECFEF29
:10027000D1E2DEBFCDBF00E00CBF19E1A0E0B2E0EB
:10028000E4EAFDE200E00BBF02C007900D92A83D3A
:10029000B107D9F72AE1A8EDB9E101C01D92AE3E40
:1002A000B207E1F711E0C5E3D1E000E006C0219715
:1002B0000109802FFE010E94B416C433D10780E0EB
:1002C0000807A9F70E94400A0C94D0160C9400006D
:1002D000AF92BF92CF92DF92EF92FF920F931F9354
:1002E000CF93DF936C017B018B01040F151FEB0192
:1002F0005E01AE18BF08C017D10759F06991D60149
:10030000ED91FC910190F081E02DC6011995892BAA
:1003100079F7C501DF91CF911F910F91FF90EF9079
:10032000DF90CF90BF90AF900895FC01538D448D26
:10033000252F30E0842F90E0821B930B541710F090
:10034000CF96089501970895FC01918D828D98179D
:1003500061F0A28DAE0FBF2FB11D5D968C91928D75
:100360009F5F9F73928F90E008958FEF9FEF0895A6
:10037000FC01918D828D981731F0828DE80FF11D6F
:10038000858D90E008958FEF9FEF0895FC01918D8A
:10039000228D892F90E0805C9F4F821B91098F7383
:1003A0009927089589EF99E10E94C60121E0892BE0
:1003B00009F420E0822F0895FC01A48DA80FB92F25
:1003C000B11DA35ABF4F2C91848D90E001968F737D
:1003D0009927848FA689B7892C93A089B1898C919C
:1003E000837080648C93938D848D981306C00288EB
:1003F000F389E02D80818F7D80830895EF92FF92B5
:100400000F931F93CF93DF93EC0181E0888F9B8D37
:100410008C8D98131AC0E889F989808185FF15C0F1
:100420009FB7F894EE89FF896083E889F989808114
:100430008370806480839FBF81E090E0DF91CF91E3
:100440001F910F91FF90EF900895F62E0B8D10E005
:100450000F5F1F4F0F731127E02E8C8D8E110CC074
:100460000FB607FCFACFE889F989808185FFF5CFBF
:10047000CE010E94DC01F1CFEB8DEC0FFD2FF11DC1
:10048000E35AFF4FF0829FB7F8940B8FEA89FB89FC
:1004900080818062CFCFCF93DF93EC01888D88235A
:1004A000B9F0AA89BB89E889F9898C9185FD03C0D7
:1004B000808186FD0DC00FB607FCF7CF8C9185FFBC
:1004C000F2CF808185FFEDCFCE010E94DC01E9CF24
:1004D000DF91CF91089580E090E0892B29F00E9470
:1004E000D20181110E94000080E090E0892B49F048
:1004F00080E090E0892B29F00E94000081110E9489
:10050000000080E090E0892B49F080E090E0892BAA
:1005100029F00E94000081110E94000080E090E01C
:10052000892B49F080E090E0892B29F00E9400009F
:1005300081110C94000008958150823108F05AC056
:10054000E82FF0E08827E855FD4F8F4F0C94B41644
:10055000C802CC02BA02C002C402FA02CF02D5021B
:10056000D902DF02E302E702ED02F102FA02F5022C
:10057000FB02FF02809180008F77809380000895B6
:10058000809180008F7DF9CF80918000877FF5CFAB
:1005900084B58F7784BD089584B58F7DFBCF80911E
:1005A000B0008F778093B00008958091B0008F7D68
:1005B000F9CF809190008F7780939000089580917B
:1005C00090008F7DF9CF80919000877FF5CF80914B
:1005D000A0008F778093A00008958091A0008F7D68
:1005E000F9CF8091A000877FF5CF809120018F7790
:1005F000809320010895809120018F7DF9CF809113
:100600002001877FF5CFCF93DF93282F30E0F901CA
:10061000EE5DFD4F8491F901E452FE4FD491F90152
:10062000EA56FE4FC491CC23A1F081110E949C0296
:10063000EC2FF0E0EE0FFF1FE458FE4FA591B491B0
:10064000EC91ED2381E090E009F480E0DF91CF911F
:10065000089580E090E0FACF1F93CF93DF93282F87
:1006600030E0F901EE5DFD4F8491F901E452FE4F57
:10067000D491F901EA56FE4FC491CC23A9F0162F6C
:1006800081110E949C02EC2FF0E0EE0FFF1FEE594B
:10069000FE4FA591B4918FB7F894EC91111108C059
:1006A000D095DE23DC938FBFDF91CF911F9108950A
:1006B000DE2BF8CFCF93DF9390E0FC01E452FE4FA6
:1006C00024918A569E4FFC0184918823D1F090E0BA
:1006D000880F991FFC01E85BFE4FA591B491FC01C6
:1006E000EE59FE4FC591D49161110EC09FB7F89499
:1006F0008C91E22FE0958E238C932881E223E8836E
:100700009FBFDF91CF9108958FB7F894EC91E22BC2
:10071000EC938FBFF6CF3FB7F8948091E01990919A
:10072000E119A091E219B091E31926B5A89B05C083
:100730002F3F19F00196A11DB11D3FBFBA2FA92F60
:10074000982F8827BC01CD01620F711D811D911D5D
:1007500042E0660F771F881F991F4A95D1F70895C9
:100760008F929F92AF92BF92CF92DF92EF92FF92C1
:100770006B017C010E948B034B015C01C114D1040D
:10078000E104F104B9F00E948B03681979098A0920
:100790009B09683E73408105910580F321E0C21AF0
:1007A000D108E108F10888EE880E83E0981EA11CAC
:1007B000B11CE4CFFF90EF90DF90CF90BF90AF904F
:1007C0009F908F9008952FB7F8946091DC197091E5
:1007D000DD198091DE199091DF192FBF08950F93D5
:1007E0001F93CF93DF93C4E1D2E004E012E088814D
:1007F000229661E00E942C03F80180810E5F1F4F5A
:1008000060E00E942C03F2E0C432DF0781F7DF9141
:10081000CF911F910F9108950F931F93CF938C0148
:10082000C62F86E10130110521F00230110549F48F
:1008300087E10E942C036C2F8BE106301105E9F053
:1008400006C00330110549F488E10E942C036C2F87
:100850008CE10730110589F006C00430110549F418
:1008600089E10E942C030830110561F46C2F8DE1A1
:1008700004C08AE105301105F1F6CF911F910F9167
:100880000C942C03CF911F910F910895CF93DF9378
:10089000EC01019739F560E08EE10E942C0361E0E4
:1008A00080E20E942C03C330D10539F560E080E27C
:1008B0000E942C0361E081E20E942C03C530D10527
:1008C00039F560E082E20E942C0361E083E20E943D
:1008D0002C03C730D10539F560E084E20E942C0377
:1008E00061E028C061E08EE10E942C03C230D10596
:1008F000B1F660E080E20E942C0361E080E20E9499
:100900002C03C430D105B1F660E081E20E942C03D3
:1009100061E082E20E942C03C630D105B1F660E0AE
:1009200083E20E942C0361E084E20E942C0360E0D9
:100930002897B1F685E2DF91CF910C942C03CF92EA
:10094000DF92EF92FF920F931F93CF93DF931F924B
:100950001F92CDB7DEB769834A83880F991F009134
:10096000EC1A1091ED1A000F111FE6E9FAE19F0150
:1009700026593A412017310714F41192F8CF2981F2
:10098000FC01EA56F54E21838A81808360E08091E4
:10099000EA1A0E942C031016110604F501501109E1
:1009A000F801EA56F54EE080D090E81AC090E61AB9
:1009B00088E0F82E6E2D661F6627661F8C2D0E941C
:1009C0002C03EE0C61E08D2D0E942C0360E08D2D38
:1009D0000E942C03FA94F110EDCFDDCF61E08091FD
:1009E000EA1A0F900F90DF91CF911F910F91FF9016
:1009F000EF90DF90CF900C942C03EF92FF920F9327
:100A00001F93CF937C018C0183E0000F111F8A9507
:100A1000E1F70A55154EC1E0F80111928F0140E04F
:100A20006C2FC7010E949F04CF5FC930A9F7CF91F7
:100A30001F910F91FF90EF9008952091EC1A309143
:100A4000ED1A12161306FCF488309105E0F46830B4
:100A50007105C8F420E830E002C0359527956A9505
:100A6000E2F7FC01EA56F54E5089442349F0252B64
:100A7000208B61E0680F408990E080E00C949F0437
:100A800020952523F5CF0895CF92DF92EF92FF9224
:100A90000F931F93CF93DF9384E1C82E82E0D82E6B
:100AA00094E0E92E92E0F92ED0E0C0E0F6018081DA
:100AB000F2E0CF0ED11C61E00E942C03F70180818F
:100AC000F2E0EF0EF11C60E00E942C0310E000E069
:100AD00040E0B801CE010E941D050F5F1F4F083096
:100AE0001105B1F72196C830D10501F7DF91CF91FB
:100AF0001F910F91FF90EF90DF90CF900895CF93CB
:100B0000DF93FC0101900020E9F73197AF01481B0A
:100B1000590BBC0189EF99E10E946801EC0142E0A8
:100B200050E066EB78E189EF99E10E9468018C0F53
:100B30009D1FDF91CF910895CF92DF92EF92FF92A8
:100B40000F931F93CF93DF9362E370E080E090E018
:100B50000E94B00388E20E940303019769F4809128
:100B6000E6199091E719843091050CF06AC001965E
:100B70009093E7198093E61987E20E940303019797
:100B800009F064C08091E4199091E5190197909360
:100B9000E5198093E41989E20E940303019709F0A3
:100BA00008C30E94E3036093F0197093F1198093D6
:100BB000F2199093F3196B017C0128EBC20E2BE024
:100BC000D21EE11CF11C89E20E9403030197D1F4BB
:100BD0000E94E303C616D706E806F906A0F70E94AE
:100BE000E3036093F0197093F1198093F2199093D5
:100BF000F31989EB98E10E947F0581E08093DA196F
:100C00008093EF198091DA19882309F4D2C2809178
:100C1000EF19882341F00E9444051092EF198AECE5
:100C200098E10E947F058091D91941E08823D1F095
:100C300063E070E083E090E00E941D0560E081E2E7
:100C400025C21092E7191092E61996CF86E20E940B
:100C50000303019709F09FCF8091E4199091E51962
:100C6000019695CF61E070E082E090E00E941D0562
:100C700041E061E070E083E090E00E941D0541E00A
:100C800061E070E084E090E00E941D0541E061E0D9
:100C900070E085E090E00E941D0541E061E070E0B9
:100CA00086E090E00E941D0541E066E070E082E091
:100CB00090E00E941D0541E066E070E083E090E076
:100CC0000E941D0541E066E070E084E090E00E9433
:100CD0001D0541E066E070E085E090E00E941D05A2
:100CE00041E066E070E086E090E00E941D0541E092
:100CF00066E070E081E090E00E941D0541E061E067
:100D000070E081E090E00E941D0541E062E070E04B
:100D100082E090E00E941D0541E063E070E083E026
:100D200090E00E941D0541E064E070E084E090E006
:100D30000E941D0541E065E070E085E090E00E94C2
:100D40001D058091E8199091E9198230910509F407
:100D5000CBC10CF083C1009709F48AC1019709F453
:100D60009AC189E20E940303019709F06CC10E94B5
:100D7000E3036B017C01C092F019D092F119E0926B
:100D8000F219F092F3198091D91991E08927809393
:100D9000D9190E94440580EDC80E87E0D81EE11CD9
:100DA000F11C89E20E940303019709F04CC10E94E3
:100DB000E303C616D706E806F90698F71092F61967
:100DC0001092F51989ED98E10E947F051092ED19B6
:100DD0001092EC190E94E3036093F0197093F119DB
:100DE0008093F2199093F3196B017C0128EEC20EE7
:100DF00023E0D21EE11CF11C89E20E94030301974B
:100E000009F077C00E94E303C616D706E806F90684
:100E100098F782E090E09093F6198093F51980E0BE
:100E200099E10E947F050E94E3036093F01970939B
:100E3000F1198093F2199093F3196B017C0128EE5C
:100E4000C20E23E0D21EE11CF11C89E20E940303C2
:100E5000EC01019709F04DC00E94E303C616D706C6
:100E6000E806F90690F7D093F619C093F51981E0DA
:100E70008093EF1984E299E10E947F050E94E303C9
:100E80006093F0197093F1198093F2199093F3190C
:100E90006B017C0128EEC20E23E0D21EE11CF11C86
:100EA00089E20E940303019721F50E94E303C6161D
:100EB000D706E806F906A0F788E499E10E947F05C5
:100EC0000E94E3036093F0197093F1198093F21973
:100ED0009093F31981E08093D81982E090E0909389
:100EE000F6198093F51968EE73E080E090E00E94B7
:100EF000B0031092DA198091D819882309F4A3C09D
:100F000041E062E070E082E090E00E941D0541E077
:100F100063E070E082E090E00E941D0541E064E043
:100F200070E082E090E00E941D0541E065E070E025
:100F300082E090E00E941D0541E062E070E083E005
:100F400090E00E941D0541E062E070E084E090E0E6
:100F50000E941D0541E063E070E084E090E00E94A3
:100F60001D0541E064E070E084E090E00E941D0512
:100F700041E065E070E084E090E00E941D0541E002
:100F800062E070E085E090E00E941D0541E062E0D3
:100F900070E086E090E00E941D0541E063E070E0B3
:100FA00086E090E00E941D0541E064E070E086E08C
:100FB00090E00E941D0541E065E070E086E090E071
:100FC0000E941D0510E000E078018FEFE81AF80A92
:100FD000C7010E944604C1E0D0E06801E894C2F86D
:100FE00022E0C216D10419F00430110521F4CE011B
:100FF0000397049740F00330110509F0CCC0C330CB
:10100000D10509F0CCC061E070E0CE010E940C0473
:101010002196C930D10521F761E070E080E090E0D1
:101020000E94B00387010830110571F689E20E9421
:101030000303019709F0B6C00E9444051092D81925
:1010400081E08093DA196091F7197091F819072EF1
:10105000000C880B990B0E94B003D4CD843091050D
:1010600009F488C00CF45BC0059709F4E7CD79CE8C
:1010700060E080E20E942C0360E081E20E942C0389
:1010800060E082E20E942C0360E083E20E942C0375
:1010900061E089E17DC060E080E20E942C0360E0B5
:1010A00081E20E942C0360E082E20E942C0361E056
:1010B0008AE10E942C0364E170E080E090E00E94ED
:1010C000B0030E94EF0360E081E20E942C0361E024
:1010D00089E10E942C0364E170E080E090E00E94CE
:1010E000B0030E94EF033DCE60E080E20E942C033B
:1010F00060E081E20E942C0360E082E20E942C0307
:1011000061E08AE10E942C0364E170E080E090E0FD
:101110000E94B0030E94EF0360E082E2D6CF60E05D
:1011200080E20E942C0361E089E10E942C0364E1CB
:1011300070E080E090E00E94B0030E94EF0360E066
:1011400081E20E942C0361E089E10E942C0361E0AE
:101150008AE10E942C0364E170E080E090E00E944C
:10116000B0030E94EF0360E082E20E942C0361E082
:101170008AE1AFCF60E081E20E942C0361E089E167
:101180000E942C0360E082E20E942C0361E08AE16D
:101190000E942C03E6CD0530110509F430CF70E034
:1011A00060E033CF64E170E080E090E00E94B00343
:1011B000A2CEDF91CF911F910F91FF90EF90DF9022
:1011C000CF9008951F920F920FB60F9211240BB675
:1011D0000F922F933F934F935F936F937F938F93D0
:1011E0009F93AF93BF93EF93FF9389EF99E10E9491
:1011F000DC01FF91EF91BF91AF919F918F917F9112
:101200006F915F914F913F912F910F900BBE0F9077
:101210000FBE0F901F9018951F920F920FB60F924E
:1012200011240BB60F922F938F939F93EF93FF93FD
:10123000E091091AF0910A1A8081E0910F1AF09159
:10124000101A82FD1DC090818091121A8F5F8F73DA
:101250002091131A821741F0E091121AF0E0E75042
:10126000F64E958F8093121AFF91EF919F918F9177
:101270002F910F900BBE0F900FBE0F901F901895DF
:101280008081F2CF1F920F920FB60F9211242F93ED
:101290003F938F939F93AF93BF938091DC1990916D
:1012A000DD19A091DE19B091DF193091DB1923E02F
:1012B000230F2D3758F50196A11DB11D2093DB1981
:1012C0008093DC199093DD19A093DE19B093DF1998
:1012D0008091E0199091E119A091E219B091E31980
:1012E0000196A11DB11D8093E0199093E119A0937F
:1012F000E219B093E319BF91AF919F918F913F9104
:101300002F910F900FBE0F901F90189526E8230F76
:101310000296A11DB11DD2CFCF93DF931092FC197D
:101320001092FB1988EE93E0A0E0B0E08093FD19E5
:101330009093FE19A093FF19B093001A88EA98E1E0
:101340009093FA198093F91985EC90E09093061A1E
:101350008093051A84EC90E09093081A8093071A02
:1013600080EC90E090930A1A8093091A81EC90E047
:1013700090930C1A80930B1A82EC90E090930E1AC3
:1013800080930D1A86EC90E09093101A80930F1AB8
:101390001092121A1092131A1092141A1092151A0F
:1013A000CCE0D0E0D093E71AC093E61A8BE090E04F
:1013B0009093E91A8093E81A8AE090E09093EB1AF0
:1013C0008093EA1A88E090E09093ED1A8093EC1AEB
:1013D00061E08CE00E945A0361E08091E81A0E946B
:1013E0005A0361E08091EA1A0E945A0361E08091F9
:1013F000EA1A0E942C03D093E71AC093E61AE6EA91
:10140000FAE111928AE1E63EF807D9F7D0E0C0E0B0
:101410008091EC1A9091ED1AC817D90774F540E045
:101420006FE0CE010E949F048091EC1A9091ED1A1A
:10143000C817D9072CF447E06BE0CE010E949F0447
:1014400040E069E0CE010E949F048091EC1A9091E7
:10145000ED1AC817D9071CF4CE010E94FD04809133
:10146000EC1A9091ED1AC817D9072CF440E06CE003
:10147000CE010E949F042196CBCFDF91CF9108959A
:10148000CF93DF9300D01F92CDB7DEB7789484B5A9
:10149000826084BD84B5816084BD85B5826085BD70
:1014A00085B5816085BD80916E00816080936E00FE
:1014B00010928100809181008260809381008091F0
:1014C00081008160809381008091800081608093A1
:1014D00080008091B10084608093B1008091B00061
:1014E00081608093B0008091910082608093910030
:1014F0008091910081608093910080919000816043
:10150000809390008091A10082608093A1008091DF
:10151000A10081608093A1008091A00081608093F0
:10152000A00080912101826080932101809121019E
:10153000816080932101809120018160809320014E
:1015400080917A00846080937A0080917A00826032
:1015500080937A0080917A00816080937A008091F4
:101560007A00806880937A001092C100E091091A95
:10157000F0910A1A82E08083E091051AF091061A30
:101580001082E091071AF091081A8FEC8083109274
:10159000111AE0910D1AF0910E1A86E08083E09105
:1015A0000B1AF0910C1A808180618083E0910B1AF4
:1015B000F0910C1A808188608083E0910B1AF09181
:1015C0000C1A808180688083E0910B1AF0910C1ACC
:1015D00080818F7D808360E086E20E945A0360E014
:1015E00087E20E945A0360E088E20E945A0360E0AA
:1015F00089E20E945A0304E112E084E1C82E82E0ED
:10160000D82E84E092E09A838983E981FA81F08080
:101610003296FA83E98361E08F2D0E945A03F80124
:10162000E0800E5F1F4F61E08E2D0E945A0361E043
:101630008E2D0E942C0360E08F2D0E942C03898147
:101640009A81C816D90609F78091EC1A9091ED1A83
:101650001816190634F441E06CE090E080E00E9436
:101660009F048091EC1A9091ED1A1816190634F423
:1016700045E06AE090E080E00E949F048091EC1ACF
:101680009091ED1A1816190624F490E080E00E945B
:10169000FD040E94E51526E030E040E050E00E94A5
:1016A0003D167093EB196093EA1984E090E09093F3
:1016B000E9198093E81980917B00877F80937B00F4
:1016C00080E480937C0080917A00806480937A002B
:1016D00080917A0086FDFCCF90917800809179000E
:1016E00089279827892797FD03969595879595953E
:1016F00087959093F8198093F7198091F519909137
:10170000F619009709F031C186E20E9403030197A0
:1017100031F482E699E10E947F051092F41987E284
:101720000E940303019759F485E799E10E947F0520
:101730008091F419882309F400C11092F41989E208
:101740000E940303019709F042C086E899E10E94D4
:101750007F050E94E3036093F0197093F119809361
:10176000F2199093F3196B017C01E8EBCE0EEBE0DC
:10177000DE1EE11CF11C89E20E9403039A83898327
:101780000197F1F40E94E303C616D706E806F906AE
:1017900090F70E94E3036093F0197093F11980931E
:1017A000F2199093F31989EB98E10E947F058981E2
:1017B0009A819093F6198093F51981E08093EF193F
:1017C0008091EE19882309F4BCC01092EE1988E2CA
:1017D0000E940303019721F48AE999E10E947F05A1
:1017E00010E000E070E5E72EFF24FA94E0EB7E2E97
:1017F000F0EBCF2ED12CA8EB6A2E912C812C609E81
:101800005001619EB00C1124E091EC19F091ED199A
:10181000FA83E983E80DF91DCF01B601E03BF1053C
:101820000CF4B7010E94A016769EC001779E900D21
:101830001124E81BF90BEA0DFB1DEE0FFF1FEC5DF9
:10184000F24F41E080819181892B09F440E0B4019D
:10185000C8010E941D05FFEF8F1A9F0A28E082161B
:10186000910491F60F5F1F4F0830110531F6F12CEE
:10187000E12C30E5432E55245A9440EB342E50EBA6
:10188000652E712C67018FEFC81AD80AC6010E9415
:10189000460409811A81912C812C3E9C50013F9C69
:1018A000B00C1124C801B301003B11050CF4B201C6
:1018B0000E94A016369EC001379E900D1124EFEFB6
:1018C0008E1A9E0AF801E81BF90BEA0DFB1DEE0FBC
:1018D000FF1FEC5DFD4F60817181C4010E940C040B
:1018E0000F5F1F4FF8E08F169104E1F661E070E0A2
:1018F00080E090E00E94B003760128E0C216D10497
:1019000009F68091EE199091F4199923F1F088234A
:1019100031F189819A8101979093ED198093EC19A7
:101920006091F7197091F819072E000C880B990B2C
:101930000E94B0030E946B02BECE81E08093F41936
:10194000FECE81E08093EE1942CFE981FA818111C8
:101950000AC03196F093ED19E093EC19E1CF89813B
:101960009A810196D9CF3197F5CF8130910511F544
:101970000E9444058091EF19882361F068EE73E0BE
:1019800080E090E00E94B0031092EF198FEA99E195
:101990000E947F0589E20E940303019709F688EC03
:1019A00099E10E947F0582E090E09093F619809380
:1019B000F519B6CF029709F0BDCFE4E0F2E0FA8363
:1019C000E9838091F5199091F619029709F067C0A3
:1019D000E090EA19F090EB1994E0C92ED12C0E9406
:1019E0009C05F2E0EF16F10409F428C20CF06CC07B
:1019F000E114F10409F47DC081E0E816F10409F472
:101A00000DC10E94EF03F1E0CF1AD10841F789819F
:101A10009A8102979A838983865F914091F686E046
:101A200090E09C838B830B811C810F5F1F4F809103
:101A3000F5199091F619029791F52090EA193090D6
:101A4000EB19E4E0F0E0FA83E9836B807C80F1E05D
:101A50006F1A71084B805C8022E0421A51080E9484
:101A60009C0582E02816310409F4FFC50CF00DC472
:101A70002114310409F437C4E1E02E16310409F4CD
:101A80000EC589819A8101979A838983892B39F7B9
:101A9000EB81FC813197FC83EB83319621F68091B9
:101AA000E8199091E9199093EB198093EA190E9433
:101AB000E51526E030E040E050E00E943D167093CE
:101AC000E9196093E81936CF94E0E916F10409F4B6
:101AD000BBC30CF4B9C2F5E0EF16F10409F091CFE5
:101AE000E091E419F091E519EE0FFF1FE45EFD4F60
:101AF0002AC08091E6199091E719009769F5009145
:101B0000E4191091E519F801EE0FFF1FE85EFD4F93
:101B100060E080810E942C03F801EE0FFF1FE65E5B
:101B2000FD4F60E080810E942C03F801EE0FFF1F43
:101B3000E45EFD4F60E080810E942C03000F111FC6
:101B4000F801E25EFD4F60E080810E942C0361E0BD
:101B5000E981FA8186854FC081309105E9F4E091F1
:101B6000E419F091E519EE0FFF1FE85EFD4F60E00C
:101B700080810E942C0361E0E981FA8186850E94C0
:101B80002C0361E0E981FA8184850E942C0361E0E5
:101B9000E981FA81828529C08230910599F5009109
:101BA000E4191091E519F801EE0FFF1FE85EFD4FF3
:101BB00060E080810E942C03F801EE0FFF1FE65EBB
:101BC000FD4F60E080810E942C03F801EE0FFF1FA3
:101BD000E45EFD4F60E080810E942C03000F111F26
:101BE000F801E25EFD4F60E080810E942C0361E01D
:101BF000E981FA8180850E942C036DE770E080E026
:101C000090E098C0039709F0FCCEE091E419F091C0
:101C1000E519EE0FFF1FE25EFD4FA9CF8091E61997
:101C20009091E719009709F049C00091E4191091CB
:101C3000E519F801EE0FFF1FE65EFD4F60E08081C1
:101C40000E942C03E981FA81B68461E08B2D0E9409
:101C50002C0364E170E080E090E00E94B0030E94F9
:101C6000EF03F801EE0FFF1FE45EFD4F60E080819F
:101C70000E942C0361E08B2D0E942C0361E0E9811E
:101C8000FA8184850E942C0360E570E080E090E09A
:101C90000E94B0030E94EF03000F111FF801E25EE3
:101CA000FD4F60E080810E942C0361E08B2D0E943B
:101CB0002C0364E170E080E090E03CC0813091054D
:101CC000E1F50091E4191091E519F801EE0FFF1FFD
:101CD000E85EFD4F60E080810E942C03E981FA817B
:101CE000B48461E08B2D0E942C036CE370E080E0F3
:101CF00090E00E94B0030E94EF03000F111FF80153
:101D0000E65EFD4F60E080810E942C0361E0E98186
:101D1000FA8186850E942C0361E08B2D0E942C03A2
:101D200061E0E981FA8182850E942C036CE370E016
:101D300080E090E00E94B00364CE82309105E9F526
:101D40000091E4191091E519F801EE0FFF1FE85E0C
:101D5000FD4F60E080810E942C03E981FA81B2840A
:101D600061E08B2D0E942C0364E170E080E090E044
:101D70000E94B0030E94EF03F801EE0FFF1FE65E22
:101D8000FD4F60E080810E942C0361E08B2D0E945A
:101D90002C0361E0E981FA8184850E942C0360E5CF
:101DA00070E080E090E00E94B0030E94EF03000F1B
:101DB000111FF801E45EFD4F74CF039709F021CEA7
:101DC0000091E4191091E519F801EE0FFF1FE85E8C
:101DD000FD4F60E080810E942C0361E0E981FA817F
:101DE00086850E942C03E981FA81B48461E08B2D01
:101DF0000E942C0361E0E981FA8182850E942C0314
:101E00006CE370E080E090E00E94B0030E94EF037A
:101E1000000F111FF801E65EFD4F60E080810E9417
:101E20002C0361E08B2D0E942C036CE370E080E0BA
:101E300090E00E94B0030E94EF03E3CD8091E61989
:101E40009091E719009709F051C00091E4191091A1
:101E5000E519F801EE0FFF1FE65EFD4F60E080819F
:101E60000E942C03E981FA81B68461E08B2D0E94E7
:101E70002C036AE070E080E090E00E94B0030E94D2
:101E8000EF03F801EE0FFF1FE45EFD4F60E080817D
:101E90000E942C0361E08B2D0E942C036AE070E00D
:101EA00080E090E00E94B0030E94EF03000F111F3A
:101EB000F801E25EFD4F60E080810E942C0361E04A
:101EC0008B2D0E942C0361E0E981FA8184850E94B8
:101ED0002C036AE070E080E090E00E94B0030E9472
:101EE000EF036AE570E080E090E024CF8130910557
:101EF000D1F50091E4191091E519F801EE0FFF1FDB
:101F0000E85EFD4F60E080810E942C0361E0E98182
:101F1000FA8182850E942C036AE070E080E090E004
:101F20000E94B0030E94EF03000F111FF801E65E4C
:101F3000FD4F60E080810E942C0361E0E981FA811D
:101F400086850E942C03E981FA81148561E0812F46
:101F50000E942C0361E0812F0E942C036AE070E054
:101F600080E090E066CF8230910509F051C0009189
:101F7000E4191091E519F801EE0FFF1FE65EFD4F21
:101F800060E080810E942C03E981FA81B68461E0DF
:101F90008B2D0E942C036AE070E080E090E00E94AC
:101FA000B0030E94EF03F801EE0FFF1FE45EFD4F48
:101FB00060E080810E942C0361E08B2D0E942C0345
:101FC00064E170E080E090E00E94B0030E94EF03C3
:101FD000000F111FF801E25EFD4F60E080810E945A
:101FE0002C0361E08B2D0E942C0361E0E981FA81D2
:101FF00084850E942C0364E170E080E090E00E9400
:10200000B0030E94EF0366E470E080E090E092CEBF
:10201000039709F0F6CC0091E4191091E519F80145
:10202000EE0FFF1FE85EFD4F60E080810E942C03F1
:10203000E981FA81B68461E08B2D0E942C0361E076
:10204000E981FA818485D4CE8091E6199091E719CF
:10205000009709F04AC00091E4191091E519F801C0
:10206000EE0FFF1FE65EFD4F60E080810E942C03B3
:10207000E981FA81A48461E08A2D0E942C036AE040
:1020800070E080E090E00E94B0030E94EF03F8014E
:10209000EE0FFF1FE45EFD4F60E080810E942C0385
:1020A000E981FA81B68461E08B2D0E942C0361E006
:1020B0008A2D0E942C0364E670E080E090E00E948C
:1020C000B0030E94EF03000F111FF801E25EFD4F05
:1020D00060E080810E942C0361E08B2D0E942C0324
:1020E0006AE070E080E090E025CE81309105A1F5B6
:1020F0000091E4191091E519F801EE0FFF1FE65E5B
:10210000FD4F60E080810E942C0361E0E981FA814B
:1021100084850E942C03E981FA81B28461E08B2DD1
:102120000E942C036AE070E080E090E00E94B0031F
:102130000E94EF03000F111FF801E45EFD4F60E005
:1021400080810E942C0361E08B2D0E942C0361E0B2
:10215000E981FA81808500CF82309105F1F5009107
:10216000E4191091E519F801EE0FFF1FE85EFD4F2D
:1021700060E080810E942C03E981FA81B68461E0ED
:102180008B2D0E942C036AE070E080E090E00E94BA
:10219000B0030E94EF03F801EE0FFF1FE65EFD4F54
:1021A00060E080810E942C0361E08B2D0E942C0353
:1021B000E981FA81B48461E08B2D0E942C0364E6EE
:1021C00070E080E090E00E94B0030E94EF03000FF7
:1021D000111FF801E45EFD4F7BCF039709F011CC8E
:1021E0000091E4191091E519F801EE0FFF1FE65E6A
:1021F000FD4F60E080810E942C03E981FA81B28466
:1022000061E08B2D0E942C0361E0E981FA818085D9
:102210000E942C036AE070E080E090E00E94B0032E
:102220000E94EF03000F111FF801E45EFD4F60E014
:1022300080810E942C0361E0E981FA8184850E94FB
:102240002C0361E08B2D88CE0091E4191091E519E3
:10225000F801EE0FFF1FE45EFD4F60E080810E94F9
:102260002C03000F111FF801E25EFD4F60E080813A
:102270000E942C0361E0E981FA8186850E942C038B
:1022800061E0E981FA818485B6CCF4E02F1631044F
:1022900009F4FEC30CF4FCC285E02816310409F0F1
:1022A000F0CB8091E4199091E5198C3FEFEF9E07F8
:1022B0000CF035C48CEF9FEF9093E5198093E419EF
:1022C000E090E419F090E519F4E0EF0EF11C41E024
:1022D000B801C7010E941D056DE770E080E090E045
:1022E0000E94B0034EC28091E6199091E7190097C1
:1022F00009F052C08091E4199091E5198E3FEFEFFB
:102300009E070CF040C08EEF9FEF9093E5198093ED
:10231000E419E090E419F090E5194701F2E08F0E1E
:10232000911C41E0B801C4010E941D05570123E042
:10233000A20EB11C41E0B801C5010E941D05670154
:1023400084E0C80ED11C41E0B801C6010E941D0501
:1023500095E0E90EF11C41E0B801C7010E941D059E
:102360006DE770E080E090E00E94B00340E0B801CB
:10237000C4010E941D0540E0B801C5010E941D0571
:1023800040E0B801D9C0039724F2E2E0F0E0F09316
:10239000E519E093E419BDCFE090E419F090E51958
:1023A000E2E0EE0EF11C8130910509F44EC082305E
:1023B000910509F040C0E090E419F090E51947015B
:1023C000F2E08F0E911C41E0B201C4010E941D0594
:1023D000570123E0A20EB11C41E0B201C5010E94E9
:1023E0001D05670184E0C80ED11C41E0B201C601A1
:1023F0000E941D0595E0E90EF11C41E0B201C70104
:102400000E941D056DE770E080E090E00E94B0033F
:1024100040E0B201C4010E941D0540E0B201C501C7
:102420000E941D0540E0B201C6010E941D0540E06A
:10243000B201C7012AC2039709F023CBE090E41947
:10244000F090E519E5E0EE0EF11C41E0B801C7019E
:102450000E941D0541E06B817C81C7010E941D0522
:1024600041E0B301C7010E941D0541E0B201C7016F
:102470000E941D056DE770E080E090E00E94B003CF
:1024800040E0B801C7010E941D0540E06B817C81DE
:10249000C7010E941D0540E0B301C701C6CF80916E
:1024A000E6199091E719009709F051C08091E4195D
:1024B0009091E5198D3FFFEF9F070CF03FC08DEF26
:1024C0009FEF9093E5198093E419E090E419F09060
:1024D000E5195701F3E0AF0EB11C41E0B801C501A9
:1024E0000E941D05670124E0C20ED11C41E0B80125
:1024F000C6010E941D0541E06B817C81C6010E94DE
:102500001D0585E0E80EF11C41E0B801C7010E94FD
:102510001D056DE770E080E090E00E94B00340E0B0
:10252000B801C5010E941D0540E0B801C6010E9426
:102530001D0540E06B817C81C60121C103972CF20F
:10254000E2E0F0E0F093E519E093E419BECF8130CA
:10255000910589F5C090E419D090E519760193E0D2
:10256000E90EF11C41E0B801C7010E941D0541E0E0
:102570006B817C81C7010E941D05E2E0CE0ED11C5B
:1025800041E06B817C81C6010E941D0541E0B301E1
:10259000C7010E941D056DE770E080E090E00E9499
:1025A000B00340E0B801C7010E941D0540E06B8107
:1025B0007C81C70135C082309105E9F5E090E419CE
:1025C000F090E5195701F2E0AF0EB11C41E0B30104
:1025D000C5010E941D05670123E0C20ED11C41E028
:1025E000B301C6010E941D0541E06B817C81C601DB
:1025F0000E941D0584E0E80EF11C41E0B301C70113
:102600000E941D056DE770E080E090E00E94B0033D
:1026100040E0B301C5010E941D0540E0B301C601C1
:102620000E941D0540E06B817C81C6010E941D0552
:1026300040E0B301FECE039709F023CAC090E4192D
:10264000D090E519760195E0E90EF11C41E0B80162
:10265000C7010E941D0541E06B817C81C7010E947A
:102660001D05E6E0CE0ED11C8BCF8091E61990912E
:10267000E719009709F04CC08091E4199091E51991
:102680008D3FFFEF9F07ECF58DEF9FEF9093E519DE
:102690008093E419E090E419F090E519570193E074
:1026A000A90EB11C41E0B801C5010E941D056701DA
:1026B000E4E0CE0ED11C41E0B801C6010E941D0528
:1026C000F5E0EF0EF11C41E0B801C7010E941D05C5
:1026D00041E06B817C81C7010E941D056DE770E0C0
:1026E00080E090E00E94B00340E0B801C5010E9484
:1026F0001D0540E0B801C6010E941D0540E0B8017B
:10270000C5C103973CF23092E5192092E419C2CF7B
:1027100081309105C9F5E090E419F090E519670161
:1027200022E0C20ED11C41E0B301C6010E941D058A
:1027300083E0E80EF11C41E0B301C7010E941D05D2
:1027400041E06B817C81C7010E941D0541E0B80119
:10275000C7010E941D056DE770E080E090E00E94D7
:10276000B00340E0B301C6010E941D0540E0B30183
:10277000C7010E941D0540E06B817C81C7010E945A
:102780001D0540E0B80155CE8230910509F041C0E9
:10279000E090E419F090E519670193E0C90ED11CAF
:1027A00041E06B817C81C6010E941D0541E0B801BA
:1027B000C6010E941D055701E4E0AE0EB11C41E0C8
:1027C0006B817C81C5010E941D05F5E0EF0EF11CB7
:1027D00041E06B817C81C7010E941D056DE770E0BF
:1027E00080E090E00E94B00340E06B817C81C601F4
:1027F0000E941D0540E0B801C6010E941D0540E091
:102800006B817C81C5010E941D0540E06B817C814C
:1028100010CE039709F035C9C090E419D090E5199E
:10282000760122E0E20EF11C41E0B301C7010E94F3
:102830001D0541E06B817C81C7010E941D0541E0BF
:10284000B801C7010E941D0583E0C80ED11C41E0FC
:10285000B801C6010E941D056DE770E080E090E0C0
:102860000E94B00340E0B301C7010E941D0540E093
:102870006B817C81C7010E941D0540E0B801C70142
:102880000E941D0540E0B801C6010E941D05F9C85F
:102890008091E6199091E719009709F04DC0809159
:1028A000E4199091E5198D3FEFEF9E07E4F58DEF68
:1028B0009FEF9093E5198093E419E090E419F0906C
:1028C000E5195701F3E0AF0EB11C41E06B817C814B
:1028D000C5010E941D05670124E0C20ED11C41E024
:1028E0006B817C81C6010E941D0541E0B801C601D3
:1028F0000E941D0585E0E80EF11C41E0B801C7010A
:102900000E941D056DE770E080E090E00E94B0033A
:1029100040E06B817C81C5010E941D0540E06B8118
:102920007C81C6012BCD039744F2E2E0F0E0F09306
:10293000E519E093E419C1CF81309105A9F5E09044
:10294000E419F090E519670193E0C90ED11C41E04C
:10295000B301C6010E941D0541E06B817C81C60167
:102960000E941D05E4E0EE0EF11C41E0B201C7013A
:102970000E941D0541E0B301C7010E941D056DE7DE
:1029800070E080E090E00E94B00340E0B301C60137
:102990000E941D0540E06B817C81C6010E941D05DF
:1029A00040E0B201C70142CE82309105D1F5E090FE
:1029B000E419F090E5195701F3E0AF0EB11C41E0C6
:1029C000B801C5010E941D05670124E0C20ED11C9B
:1029D00041E0B801C6010E941D0541E06B817C8188
:1029E000C6010E941D0585E0E80EF11C41E06B81E7
:1029F0007C81C7010E941D056DE770E080E090E0DA
:102A00000E94B00340E0B801C5010E941D0540E0EE
:102A1000B801C6010E941D0540E06B817C81C601A2
:102A2000F2CE039709F02DC8E090E419F090E51973
:102A3000670193E0C90ED11C41E0B201C6010E94BA
:102A40001D0541E0B301C6010E941D05E4E0EE0E44
:102A5000F11C41E0B301C7010E941D0541E06B81FB
:102A60007C81C7010E941D056DE770E080E090E069
:102A70000E94B00340E0B201C6010E941D0540E083
:102A8000B301C6010E941D0540E0B301C701BBCEE2
:102A90008091E4199091E5198C3FFFEF9F07B4F501
:102AA0008CEF9FEF9093E5198093E419E090E4197F
:102AB000F090E5196701F4E0CF0ED11C41E0B801B8
:102AC000C6010E941D0541E06B817C81C6010E9408
:102AD0001D0525E0E20EF11C41E0B801C7010E948E
:102AE0001D0541E06B817C81C7010E941D056DE7DA
:102AF00070E080E090E00E94B00340E0B801C601C1
:102B00000E941D0540E06B817C81F5CD039774F236
:102B1000E2E0F0E0F093E519E093E419C7CF049701
:102B20000CF4CECBE3E0F0E0F093E519E093E41988
:102B3000C7CB8F929F92AF92BF92CF92DF92EF92CC
:102B4000FF92CF93DF93EC01688179818A819B8129
:102B5000611571058105910521F464E279ED8BE53C
:102B600097E02DE133EF41E050E00E943D1649012E
:102B70005A019B01AC01A7EAB1E40E945C166B010B
:102B80007C01ACEEB4EFA50194010E946A16C60E5A
:102B9000D71EE81EF91EF7FE06C081E0C81AD1084C
:102BA000E10880E8F80AC882D982EA82FB82C7017C
:102BB000B6019F77DF91CF91FF90EF90DF90CF909C
:102BC000BF90AF909F908F9008958F929F92AF92F9
:102BD000BF92CF92DF92EF92FF92609100027091CC
:102BE0000102809102029091030261157105810535
:102BF000910521F464E279ED8BE597E02DE133EF67
:102C000041E050E00E943D1649015A019B01AC0190
:102C1000A7EAB1E40E945C166B017C01ACEEB4EF54
:102C2000A50194010E946A16C60ED71EE81EF91E61
:102C3000F7FE06C081E0C81AD108E10880E8F80A6A
:102C4000C0920002D0920102E0920202F0920302CE
:102C5000C701B6019F77FF90EF90DF90CF90BF90B4
:102C6000AF909F908F90089560930002709301023F
:102C700080930202909303020895052E97FB1EF4A1
:102C800000940E94541657FD07D00E946F1607FC4F
:102C900003D04EF40C9454165095409530952195E0
:102CA0003F4F4F4F5F4F0895909580957095619578
:102CB0007F4F8F4F9F4F08950E949116A59F900DB3
:102CC000B49F900DA49F800D911D11240895B7FF0E
:102CD0000C945C160E945C16821B930B0895A1E273
:102CE0001A2EAA1BBB1BFD010DC0AA1FBB1FEE1F86
:102CF000FF1FA217B307E407F50720F0A21BB30BD1
:102D0000E40BF50B661F771F881F991F1A9469F74C
:102D100060957095809590959B01AC01BD01CF01A8
:102D20000895A29FB001B39FC001A39F700D811DA4
:102D30001124911DB29F700D811D1124911D0895C4
:102D400097FB072E16F4009407D077FD09D00E9458
:102D5000BC1607FC05D03EF4909581959F4F0895D1
:102D6000709561957F4F0895EE0FFF1F881F8BBFF1
:102D70000790F691E02D1994AA1BBB1B51E107C0E7
:102D8000AA1FBB1FA617B70710F0A61BB70B881FFB
:102D9000991F5A95A9F780959095BC01CD0108958A
:102DA000F894FFCF0100000016001700180019006A
:102DB0001A001B001C001D001E0020002000210026
:102DC0002200230024002500000000000000010074
:102DD00001000000000000000000010001000100EF
:102DE00001000100000000000000010001000100DE
:102DF00001000100000000000000000001000100CF
:102E000001000100000000000000000001000100BE
:102E100001000100000000000000000000000100AF
:102E200001000000000000000000000000000000A1
:102E30000000000000000000000000000100010090
:102E4000010001000000000000000100010001007D
:102E5000010001000000000000000100010000006E
:102E6000000001000100000000000100010001005D
:102E7000010001000000000000000000010001004E
:102E8000010001000000000000000000000001003F
:102E90000100000000000000000000000000010030
:102EA0000100010000000000000000000000000020
:102EB0000000000000000000000000000000010011
:102EC00001000100000000000000000001000100FE
:102ED00001000100000000000000000001000100EE
:102EE00001000100000000000000000001000100DE
:102EF00001000100000000000000000000000000D0
:102F000000000000000000000000000001000100BF
:102F100001000100000000000000000000000100AE
:102F2000010000000000000000000000000001009F
:102F3000010000000000000000000100010000008E
:102F4000000001000100000000000100010000007D
:102F5000000001000100000000000100010000006D
:102F6000000001000100000000000100010001005C
:102F7000000000000100000000000000000001004F
:102F80000100000000000000000000000000000040
:102F9000000000000000000000000100010000002F
:102FA000000001000100000000000100010000001D
:102FB000000001000100000000000100010000000D
:102FC00000000100010000000000010001000000FD
:102FD00000000100010000000000010001000000ED
:102FE00000000100010000000000000000000100DE
:102FF00001000000000000000000000000000000D0
:1030000000000000010000000000000000000000BF
:1030100000000000000000000000000001000100AE
:10302000010001000100000000000100010001009A
:10303000010001000100000000000100010001008A
:10304000000000000100000000000100010001007C
:10305000000000000100000000000000000000006F
:10306000000000000000000000000100010000005E
:10307000000001000100000000000000000001004D
:10308000010000000000000000000000010000003E
:10309000000001000000000000000100010000002D
:1030A000000001000100000000000100010000001C
:1030B000000001000100000000000100010000000C
:1030C00000000100010000000000010001000000FC
:1030D00000000000000000000000000001000100EE
:1030E00001000000000000000000010001000100DC
:1030F00001000100010000000000010001000000CB
:1031000000000000000000000000010001000000BD
:1031100000000100010000000000010001000000AB
:10312000000001000100000000000100010000009B
:10313000000001000100000000000100010000008B
:10314000000001000100000000000000010001007B
:10315000010000000000000000000000000000006E
:10316000000000000100000000000100010001005B
:10317000010001000100000000000000010001004A
:10318000000000000100000000000100010000003C
:10319000000000000000000000000100010000002D
:1031A000000000000000000000000100010000001D
:1031B000000000000000000000000000000000000F
:1031C00000000000000000000000010001000000FD
:1031D00000000100010000000000000001000000EC
:1031E00000000100000000000000010000000000DD
:1031F00000000000010000000000010001000000CC
:1032000000000100010000000000010001000100B9
:1032100001000100010000000000010001000100A8
:103220000100010001000000000001000100000099
:10323000000000000000000000000000000001008D
:10324000010000000000000000000100010001007A
:103250000100010001000000000001000100000069
:10326000000000000000000000000100010001005B
:103270000100010001000000000001000100000049
:10328000000001000100000000000100010000003A
:10329000000001000100000000000100010000002A
:1032A000000001000100000000000000000001001B
:1032B000010000000000000000000000000001000C
:1032C00001000100000000000000010001000100F9
:1032D00001000100010000000000000000000100EA
:1032E00001000000000000000000010001000100DA
:1032F00001000100000000000000010001000000CA
:1033000000000000000000000000010001000000BB
:1033100000000000000000000000000000000000AD
:10332000000000000000000000000100010001009A
:103330000100010001000000000001000000000089
:10334000000000000100000000000000000000007C
:10335000000000000000000000000100010001006A
:103360000100010000000000000001000100010058
:10337000000000000000000000000100010000004B
:103380000000010001000000000001000100000039
:10339000000000000000000000000000000001002C
:1033A000010000000000000000000000000000001C
:1033B000000000000000000000000100010000000B
:1033C00001000100010000000000010001000100F7
:1033D00000000000000000000000010001000000EB
:1033E00000000100010000000000010001000100D8
:1033F00001000100000000000000010001000000C9
:1034000000000100010000000000000000000100B9
:1034100001000000000000000000000000000000AB
:10342000000000000100000000000000000000009B
:10343000000000000000000000000000000000008C
:103440000100010000000000000001000100010077
:103450000100010000000000000001000100000068
:10346000000000000000000000000100010000005A
:10347000000000000000000000000000000000004C
:10348000000000000000000000000100010000003A
:10349000000001000100000000000000000000002A
:1034A000000000000000000000000000000000001C
:1034B000000000000000000000000100010000000A
:1034C00000000000000000000000010001000000FA
:1034D00001000000000000000000010001000000E9
:1034E00000000100010000000000010001000100D7
:1034F00000000000010000000000000000000100CA
:1035000001000000000000000000000000000000BA
:1035100000000000000000000000010001000000A9
:103520000000010001000000000001000100000097
:103530000100000000000000000001000100000088
:103540000000010001000000000001000100000077
:103550000000000000000000000001000100000069
:103560000000010001000000000000000000010058
:10357000010000000000000000000000000000004A
:10358000000000000100000000000000000000003A
:10359000000000000000000000000000010000002A
:1035A0000000010001000000000001000000000018
:1035B0000000000000000000000001000100010008
:1035C00000000000010000000000010001000100F7
:1035D00000000000010000000000000000000000EA
:1035E00000000000000000000000010001000000D9
:1035F00000000100010000000000000000000000C9
:1036000000000000000000000000000000000000BA
:1036100000000000000000000000010001000000A8
:103620000000000000000000000001000100000098
:103630000000010000000000000001000100000087
:103640000000010001000000000000000100010076
:103650000100010000000000000001000100010065
:103660000100010001000000000000000000000057
:103670000000000000000000000000000100010048
:103680000100010000000000000001000100000036
:103690000000010000000000000000000100010027
:1036A0000100010001000000000001000100000015
:1036B0000000000000000000000000000100010008
:1036C00001000100000000000000010001000100F5
:1036D00001000100010000000000000000000100E6
:1036E00001000100000000000000000000000000D8
:1036F00000000000000000000000000001000100C8
:1037000001000100010000000000010001000100B3
:1037100001000100010000000000000001000100A4
:103720000100010000000000000000000100010095
:103730000100010000000000000000000000000087
:103740000000000000000000000001000100000077
:103750000000010001000000000000000000000067
:103760000000000000000000000000000000000059
:103770000000000000000000000000000000000049
:103780000000000000000000000000000000000039
:103790000000000000000000000000000000000029
:1037A0000000000000000000000000000000000019
:1037B0000000000000000000000000000000000009
:1037C00000000000000000000000000000000000F9
:1037D00000000000000000000000000000000000E9
:1037E00000000000000000000000000000000000D9
:1037F00000000000000000000000000000000000C9
:1038000000000000000000000000000000000000B8
:1038100000000000000000000000000000000000A8
:103820000000000000000000000000000000000098
:103830000000000000000000000000000000000088
:103840000000000000000000000000000000000078
:103850000000000000000000000000000000010067
:103860000100010000000000000000000100010054
:103870000100010000000000000000000000000046
:103880000000000000000000000000000000000038
:103890000000000000000000000000000000000028
:1038A0000000000000000000000000000000000018
:1038B0000000000000000000000000000000000008
:1038C00000000000000000000000000000000000F8
:1038D00000000000000000000000000000000100E7
:1038E00001000000000000000000010001000100D4
:1038F00001000100000000000000010001000100C3
:1039000001000100000000000000000001000100B3
:1039100001000100000000000000000001000100A3
:103920000100010000000000000000000000010094
:103930000100000000000000000000000000000086
:103940000000000000000000000000000100010075
:103950000100010000000000000001000100010062
:103960000100010000000000000001000100000053
:103970000000010001000000000001000100010042
:103980000100010000000000000000000100010033
:103990000100010000000000000000000000010024
:1039A0000100000000000000000000000000010015
:1039B0000100010000000000000000000000000005
:1039C00000000000000000000000000000000100F6
:1039D00001000100000000000000000001000100E3
:1039E00001000100000000000000000001000100D3
:1039F00001000100000000000000000001000100C3
:103A000001000100000000000000000000000000B4
:103A100000000000000000000000000001000100A4
:103A20000100010000000000000000000000010093
:103A30000100000000000000000000000000000085
:103A40000000000000000000000000000000010075
:103A50000100000000000000000001000100000063
:103A60000000010001000000000001000100000052
:103A70000000010001000000000001000100000042
:103A80000000010001000000000001000100010031
:103A90000000000001000000000000000000010024
:103AA0000100000000000000000000000000000015
:103AB0000000000000000000000001000100000004
:103AC00000000100010000000000010001000000F2
:103AD00000000100010000000000010001000000E2
:103AE00000000100010000000000010001000000D2
:103AF00000000100010000000000010001000000C2
:103B000000000100010000000000000000000100B2
:103B100001000000000000000000000000000000A4
:103B20000000000001000000000000000000000094
:103B30000000000000000000000000000100010083
:103B4000010001000100000000000100010001006F
:103B5000010001000100000000000100010001005F
:103B60000000000001000000000001000100010051
:103B70000000000001000000000000000000000044
:103B80000000000000000000000001000100000033
:103B90000000010001000000000000000000010022
:103BA0000100000000000000000000000000000014
:103BB0000000000000000000000000000100000004
:103BC00000000100000000000000010001000000F2
:103BD00000000100010000000000010001000000E1
:103BE00000000100010000000000010001000000D1
:103BF00000000100010000000000010001000000C1
:103C000000000000000000000000000001000100B2
:103C100001000000000000000000010001000100A0
:103C2000010001000100000000000100010000008F
:103C30000000000000000000000001000100000082
:103C40000000010001000000000001000100000070
:103C50000000010001000000000001000100000060
:103C60000000010001000000000001000100000050
:103C70000000010001000000000000000100010040
:103C80000100000000000000000000000000000033
:103C90000000000001000000000001000100010020
:103CA000010001000100000000000000010001000F
:103CB0000000000001000000000001000100000001
:103CC00000000000000000000000010001000000F2
:103CD00000000000000000000000010001000000E2
:103CE00000000000000000000000000000000000D4
:103CF00000000000000000000000010001000000C2
:103D000000000100010000000000000001000000B0
:103D100000000100000000000000000000000000A2
:103D20000000000000000000000001000000000092
:103D30000000000001000000000001000100000080
:103D4000000001000100000000000100010001006E
:103D5000010001000100000000000100010001005D
:103D6000010001000100000000000100010000004E
:103D70000000000000000000000000000000010042
:103D8000010000000000000000000100010001002F
:103D9000010001000100000000000100010000001E
:103DA0000000000000000000000001000100010010
:103DB00001000100010000000000010001000000FE
:103DC00000000100010000000000010001000000EF
:103DD00000000100010000000000010001000000DF
:103DE00000000100010000000000000000000100D0
:103DF00001000000000000000000000000000100C1
:103E000001000100000000000000010001000100AD
:103E1000010001000100000000000000000001009E
:103E2000010000000000000000000100010001008E
:103E3000010001000000000000000100010000007E
:103E40000000000000000000000001000100000070
:103E50000000000000000000000000000000000062
:103E6000000000000000000000000100010001004F
:103E7000010001000100000000000100000000003E
:103E80000000000001000000000000000000000031
:103E90000000000000000000000000000000000022
:103EA000000000000000000000000100010001000F
:103EB00001000100000000000000010001000100FD
:103EC00000000000000000000000010001000000F0
:103ED00000000100010000000000010001000000DE
:103EE00000000000000000000000000000000100D1
:103EF00001000000000000000000000000000000C1
:103F000000000000000000000000010001000000AF
:103F1000010001000100000000000100010001009B
:103F2000000000000000000000000100010000008F
:103F3000000001000100000000000100010001007C
:103F4000010001000000000000000100010000006D
:103F5000000001000100000000000000000001005E
:103F60000100000000000000000000000000000050
:103F70000000000001000000000000000000000040
:103F80000000000000000000000000000000000031
:103F9000010001000000000000000100010001001C
:103FA000010001000000000000000100010000000D
:103FB00000000000000000000000010001000000FF
:103FC00000000000000000000000000000000000F1
:103FD00000000000000000000000010001000000DF
:103FE00000000100010000000000000000000000CF
:103FF00000000000000000000000000000000000C1
:1040000000000000000000000000000000000000B0
:10401000000000000000000000000100010000009E
:10402000000000000000000000000100010000008E
:10403000010000000000000000000100010000007D
:10404000000001000100000000000100010001006B
:10405000000000000100000000000000000001005E
:10406000010000000000000000000000000000004F
:10407000000000000000000000000100010000003E
:10408000000001000100000000000100010000002C
:10409000010000000000000000000100010000001D
:1040A000000001000100000000000100010000000C
:1040B00000000000000000000000010001000000FE
:1040C00000000100010000000000000000000100ED
:1040D00001000000000000000000000000000000DF
:1040E00000000000010000000000000000000000CF
:1040F00000000000000000000000000001000000BF
:1041000000000100010000000000010000000000AC
:10411000000000000000000000000100010001009C
:10412000000000000100000000000100010001008B
:10413000000000000100000000000000000000007E
:10414000000000000000000000000100010000006D
:10415000000001000100000000000000000000005D
:10416000000000000000000000000000000000004F
:10417000000000000000000000000000000000003F
:10418000000000000000000000000100010000002D
:10419000000000000000000000000100010000001D
:1041A000000001000000000000000100010000000C
:1041B00000000100010000000000000001000100FB
:1041C00001000100000000000000010001000100EA
:1041D00001000100010000000000000000000000DC
:1041E00000000000000000000000000001000100CD
:1041F00001000100000000000000010001000000BB
:1042000000000100000000000000000001000100AB
:104210000100010001000000000001000100000099
:10422000000000000000000000000000010001008C
:104230000100010000000000000001000100010079
:10424000010001000100000000000000000001006A
:10425000010001000000000000000000000000005C
:10426000000000000000000000000000010001004C
:104270000100010001000000000001000100010038
:104280000100010001000000000000000100010029
:10429000010001000000000000000000010001001A
:1042A000010001000000000000000000000000000C
:1042B00000000000000000000000010001000000FC
:1042C00000000100010000000000000000000000EC
:1042D00000000000000000000000000000000000DE
:1042E00000000000000000000000000000000000CE
:1042F00000000000000000000000000000000000BE
:1043000000000000000000000000000000000000AD
:10431000000000000000000000000000000000009D
:10432000000000000000000000000000000000008D
:10433000000000000000000000000000000000007D
:10434000000000000000000000000000000000006D
:10435000000000000000000000000000000000005D
:10436000000000000000000000000000000000004D
:10437000000000000000000000000000000000003D
:10438000000000000000000000000000000000002D
:10439000000000000000000000000000000000001D
:1043A000000000000000000000000000000000000D
:1043B00000000000000000000000000000000000FD
:1043C00000000000000000000000000000000000ED
:1043D00000000000000000000000000000000100DC
:1043E00001000100000000000000000001000100C9
:1043F00001000100000000000000000000000000BB
:1044000000000000000000000000000000000000AC
:10441000000000000000000000000000000000009C
:10442000000000000000000000000000000000008C
:10443000000000000000000000000000000000007C
:10444000000000000000000000000000FE01680104
:1044500095014B02C601A401B8010D0A0059612063
:1044600070617361726F6E203320736567004573EE
:10447000746F7920456E2050617573610059612019
:1044800070617361726F6E203220736567202D3EFC
:104490002052656772657361722041204C657472A9
:1044A00065726F0059612070617361726F6E2033A5
:1044B00020736567202D3E20436F6E74696E7561B1
:1044C00072204A7565676F0059612070617361726F
:1044D0006F6E203420736567202D3E205265696E13
:1044E0006963696172204A7565676F005961207060
:1044F000617361726F6E203520736567202D3E20D9
:104500004572726F720062746E446F776E205072E3
:104510006573696F6E61646F0062746E55702050D0
:10452000726573696F6E61646F0062746E5374615B
:1045300072742050726573696F6E61646F0062748B
:104540006E526F746174652050726573696F6E612D
:10455000646F005374617274205061726120456D04
:1045600070657A6172204A7565676F00496E69638C
:0C45700069616E646F204A7565676F001A
:020000040003F7
:10E000000D9489F10D94B2F10D94B2F10D94B2F129
:10E010000D94B2F10D94B2F10D94B2F10D94B2F1F0
:10E020000D94B2F10D94B2F10D94B2F10D94B2F1E0
:10E030000D94B2F10D94B2F10D94B2F10D94B2F1D0
:10E040000D94B2F10D94B2F10D94B2F10D94B2F1C0
:10E050000D94B2F10D94B2F10D94B2F10D94B2F1B0
:10E060000D94B2F10D94B2F10D94B2F10D94B2F1A0
:10E070000D94B2F10D94B2F10D94B2F10D94B2F190
:10E080000D94B2F10D94B2F10D94B2F10D94B2F180
:10E090000D94B2F10D94B2F10D94B2F10D94B2F170
:10E0A0000D94B2F10D94B2F10D94B2F10D94B2F160
:10E0B0000D94B2F10D94B2F10D94B2F10D94B2F150
:10E0C0000D94B2F10D94B2F10D94B2F10D94B2F140
:10E0D0000D94B2F10D94B2F10D94B2F10D94B2F130
:10E0E0000D94B2F141546D656761323536300041AF
:10E0F000726475696E6F206578706C6F72657220DE
:10E1000073746B3530305632206279204D4C530099
:10E11000426F6F746C6F616465723E004875683F52
:10E1200000436F6D70696C6564206F6E203D200048
:10E130004350552054797065202020203D20005FF9
:10E140005F4156525F415243485F5F3D2000415658
:10E1500052204C696243205665723D20004743437C
:10E160002056657273696F6E203D20004350552024
:10E1700049442020202020203D20004C6F7720663D
:10E18000757365202020203D20004869676820665F
:10E190007573652020203D200045787420667573D6
:10E1A00065202020203D20004C6F636B2066757336
:10E1B000652020203D20004D617220203720323024
:10E1C000313300312E362E3800342E332E350056A2
:10E1D00023202020414444522020206F7020636F70
:10E1E00064652020202020696E73747275637469E1
:10E1F0006F6E2061646472202020496E74657272B3
:10E20000757074006E6F20766563746F7200726A49
:10E210006D702020006A6D70200057686174207056
:10E220006F72743A00506F7274206E6F7420737541
:10E2300070706F72746564004D7573742062652030
:10E2400061206C6574746572002000577269747483
:10E25000696E672045450052656164696E672045B7
:10E26000450045452065727220636E743D00504F35
:10E27000525400303D5A65726F2061646472003FF1
:10E280003D43505520737461747300403D454550C3
:10E29000524F4D207465737400423D426C696E6B41
:10E2A000204C454400453D44756D70204545505215
:10E2B0004F4D00463D44756D7020464C415348001B
:10E2C000483D48656C70004C3D4C69737420492F83
:10E2D0004F20506F72747300513D51756974005234
:10E2E0003D44756D702052414D00563D73686F7707
:10E2F00020696E7465727275707420566563746FF0
:10E30000727300593D506F727420626C696E6B00BD
:10E310002A0011241FBECFEFD1E2DEBFCDBF01E046
:10E320000CBF12E0A0E0B2E0EEE1FDEF03E00BBFB6
:10E3300002C007900D92A030B107D9F712E0A0E01B
:10E34000B2E001C01D92AE30B107E1F70F9460F367
:10E350000D948DFE01E20EBF0FEF0DBF11241FBE05
:10E360000D9460F30D9400F020E030E040ED57E0B4
:10E3700005C0FA013197F1F72F5F3F4F2817390792
:10E38000C0F308959C01260F311DC901A0E0B0E043
:10E390002F5F3F4FABBFFC018791882361F08093D3
:10E3A000C6008091C00086FFFCCF8091C0008064D1
:10E3B0008093C000EACF08958DE08093C6008091DD
:10E3C000C00086FFFCCF8091C00080648093C000B5
:10E3D0008AE08093C6008091C00086FFFCCF8091C8
:10E3E000C00080648093C00008950F94C2F10F9420
:10E3F000DCF10895FC019081992359F09093C600B7
:10E400008091C00086FFFCCF8091C0008064809323
:10E41000C0003196992379F70895282F982F929567
:10E420009F70892F805D8A3308F0895F8093C600D2
:10E430008091C00086FFFCCF8091C00080648093F3
:10E44000C000822F8F70982F905D9A3308F0995FEB
:10E450009093C6008091C00086FFFCCF8091C000E1
:10E4600080648093C00008959C01FB01853691056E
:10E470001CF46330710594F0C90164E670E00F94F8
:10E480002EFE605D7F4F6093C6008091C00086FFC6
:10E49000FCCF8091C00080648093C0002B30310598
:10E4A00014F43297B4F0C90164E670E00F942EFEC4
:10E4B0006AE070E00F942EFE605D7F4F6093C600AF
:10E4C0008091C00086FFFCCF8091C0008064809363
:10E4D000C000C9016AE070E00F942EFEC0968093E0
:10E4E000C6008091C00086FFFCCF8091C000806490
:10E4F0008093C00008951F93182F8EE692EE60E07F
:10E500000F94C2F11093C6008091C00086FFFCCF2B
:10E510008091C00080648093C0000F94DCF11F9153
:10E5200008952F923F924F925F926F927F928F92B7
:10E530009F92AF92BF92CF92DF92EF92FF920F9392
:10E540001F93DF93CF93CDB7DEB762970FB6F894E2
:10E55000DEBF0FBECDBF382E622ECA01DB015C01CB
:10E560006D01772420E2222E2E010894411C511CBB
:10E570008BC081E0A81680E0B80681E0C80680E084
:10E58000D80628F0C601AA27BB270F940DF2BB2797
:10E59000AD2D9C2D8B2D0F940DF28A2D0F940DF225
:10E5A0002092C6008091C00086FFFCCF8091C00001
:10E5B00080648093C0009DE29093C6008091C0006B
:10E5C00086FFFCCF8091C00080648093C0002092C1
:10E5D000C6008091C00086FFFCCF8091C00080649F
:10E5E0008093C00019828601750188249924A1E0D6
:10E5F0003A1651F03A1620F0B2E03B1661F409C029
:10E600000BBFF701779007C0C7010F9477FE782EF4
:10E6100002C0F7017080872D0F940DF22092C60082
:10E620008091C00086FFFCCF8091C0008064809301
:10E63000C000872D8052F401EF70F0708F3520F408
:10E64000E40DF51D708204C0E40DF51D8EE280839B
:10E650000894E11CF11C011D111D0894811C911CE2
:10E6600090E18916910409F0C2CF80E190E0A0E02A
:10E67000B0E0A80EB91ECA1EDB1E198AC2010F9493
:10E68000FAF10F94DCF16A94662009F072CF629679
:10E690000FB6F894DEBF0FBECDBFCF91DF911F91B3
:10E6A0000F91FF90EF90DF90CF90BF90AF909F9031
:10E6B0008F907F906F905F904F903F902F90089534
:10E6C0002F923F924F925F926F927F928F929F9282
:10E6D000AF92BF92CF92DF92EF92FF920F931F9370
:10E6E000DF93CF93CDB7DEB7CD53D1400FB6F894BB
:10E6F000DEBF0FBECDBF01E20EBF0FEF0DBF94B75F
:10E70000F894A89514BE80916000886180936000A1
:10E7100010926000789493FF05C0E0910002F091A0
:10E7200001021995279A2F9A8091C00082608093E8
:10E73000C00080E18093C40088E18093C1000000A4
:10E74000EE24FF24870144E0A42EB12CCC24DD2448
:10E7500024C0C5010197F1F70894E11CF11C011DCB
:10E76000111D21E2E2162EE4F20620E0020720E06D
:10E77000120718F031E0C32ED12CC801B70127ECE5
:10E780003BE140E050E00F9441FE611571058105C9
:10E79000910519F485B1805885B98091C00087FD35
:10E7A00003C0C114D104A9F2A6014F5F5F4FC25E3E
:10E7B000DE4F59834883CE51D140C25EDE4F8881FF
:10E7C0009981CE51D140019711F00D9410FEC05D9A
:10E7D000DE4F19821882C053D14060E0C15DDE4F28
:10E7E0001882CF52D14088249924C35DDE4F19820C
:10E7F0001882CD52D140C05EDE4F188219821A8233
:10E800001B82C052D140CE5CDE4F188219821A8220
:10E810001B82C253D140EE24FF2487010BBFF701B6
:10E8200007911691C45CDE4F19830883CC53D14005
:10E830000D940BFEC25EDE4F28813981CE51D1404E
:10E840002130310509F52091C600C25EDE4F1982E4
:10E850001882CE51D14022C02F5F3F4F4F4F5F4FA4
:10E86000213082E138078AE7480780E0580780F0C6
:10E87000C45CDE4FE881F981CC53D140EF5FFF4F9C
:10E8800019F0EE27FF27099420E030E040E050E047
:10E890008091C00087FFE0CF2091C600C35DDE4FAE
:10E8A00048815981CD52D1404F5F5F4FC35DDE4FEC
:10E8B00059834883CD52D140213209F063C64A3092
:10E8C000510508F05FC60894811C911C53E0851621
:10E8D000910409F059C600E010E018C081E280936D
:10E8E000C6008091C00086FFFCCF8091C00080648C
:10E8F0008093C0002F5F3F4F2931310579F70F9486
:10E90000DCF10F5F1F4F0530110519F020E030E0FA
:10E91000E5CF10920A0210920B0210920C02109294
:10E920000D02109206021092070210920802109235
:10E930000902109202021092030210920402109235
:10E9400005028FEE90EE60E00F94F5F180E191EE1C
:10E9500060E00F94C2F18091C00087FFFCCF9091DE
:10E96000C600903608F09F759032B8F09093C600BC
:10E970008091C00086FFFCCF8091C00080648093AE
:10E98000C000A0E2A093C6008091C00086FFFCCF2B
:10E990008091C00080648093C000983409F4D7C18E
:10E9A0009934B8F4923409F459C1933458F490333B
:10E9B00019F1903308F4E3C59F33A1F1903409F0C5
:10E9C000DEC5BDC0953409F470C1963409F0D7C5D1
:10E9D00098C1923509F42BC2933538F49C3409F46C
:10E9E000F5C1913509F0CBC518C2963509F445C279
:10E9F000993509F0C4C567C483E792EE62E00F94CD
:10EA0000F5F110920602109207021092080210927D
:10EA1000090210920A0210920B0210920C0210923C
:10EA20000D0213C18FE792EE62E00F94F5F18FEEC5
:10EA300090EE60E00F94F5F181E291EE60E00F94CA
:10EA4000C2F187EB91EE60E00F94F5F180E391EE77
:10EA500060E00F94C2F184EE90EE60E00F94F5F167
:10EA60008FE391EE60E00F94C2F186E090E061E008
:10EA700070E00F9434F20F94DCF18DE591EE60E0DC
:10EA80000F94C2F189EC91EE60E00F94F5F18EE401
:10EA900091EE60E00F94C2F183EC91EE60E00F9490
:10EAA000F5F18CE691EE60E00F94C2F18EE10F94E7
:10EAB0000DF288E90F940DF281E00F940DF20F949E
:10EAC000DCF18BE791EE60E00F94C2F119E0E0E039
:10EAD000F0E010935700E4918E2F0F940DF20F94F5
:10EAE000DCF18AE891EE60E00F94C2F1E3E0F0E03F
:10EAF00010935700E4918E2F0F940DF20F94DCF1D8
:10EB000089E991EE60E00F94C2F1E2E0F0E0109349
:10EB10005700E4918E2F0F940DF20F94DCF188EAE8
:10EB200091EE60E00F94C2F1E1E0F0E01093570045
:10EB30001491812F0F940DF20F94DCF107CF8BE825
:10EB400092EE62E00F94F5F18BE492EE60E00F94A8
:10EB5000F5F10F94DCF100E010E019C0C8016F2D51
:10EB60000F947FFEFF2031F489E492EE60E00F9471
:10EB7000C2F10BC0F092C6008091C00086FFFCCFAE
:10EB80008091C00080648093C0000F5F1F4FC80158
:10EB900081519F41A0E0B0E0ABBFFC01F790BAE229
:10EBA000FB1621F0E2E000301E07C1F60F94DCF105
:10EBB0000F94DCF187E592EE60E00F94F5F10F948D
:10EBC000DCF1CC24DD2400E010E01EC0C8010F946D
:10EBD00077FEF82E882331F489E492EE60E00F94FA
:10EBE000C2F10BC08093C6008091C00086FFFCCFAD
:10EBF0008091C00080648093C000FE1419F00894D6
:10EC0000C11CD11C0F5F1F4FC80181519F41A0E063
:10EC1000B0E0ABBFFC01E790FAE2EF1621F022E092
:10EC20000030120799F60F94DCF10F94DCF182E6C4
:10EC300092EE60E00F94C2F1C60161E070E00F94C3
:10EC400034F20F94DCF10F94DCF110920202109276
:10EC50000302109204021092050278CE89E992EE26
:10EC600062E00F94F5F1279A2F9A16C02F9880E052
:10EC700090E0E0EDF7E03197F1F7019684369105E9
:10EC8000C1F72F9A80E090E0E0EDF7E03197F1F7DF
:10EC9000019684369105C1F78091C00087FFE6CFC9
:10ECA0008091C00087FFFCCF64C485EA92EE62E0E9
:10ECB0000F94F5F140910202509103026091040219
:10ECC0007091050281E020E10F9491F2809102029F
:10ECD00090910302A0910402B091050280509F4FD1
:10ECE000AF4FBF4F8093020290930302A0930402A0
:10ECF000B093050280509041A040B04008F426CE69
:10ED0000A4CF83EB92EE62E00F94F5F140910602FE
:10ED100050910702609108027091090280E020E1A1
:10ED20000F9491F28091060290910702A09108023F
:10ED3000B091090280509F4FAF4FBF4F80930602A2
:10ED400090930702A0930802B0930902FFCD80ECD4
:10ED500092EE62E00F94F5F183E792EE60E00F949B
:10ED6000F5F18FE792EE60E00F94F5F18BE892EE0B
:10ED700060E00F94F5F189E992EE60E00F94F5F10F
:10ED800085EA92EE60E00F94F5F183EB92EE60E09D
:10ED90000F94F5F180EC92EE60E00F94F5F187ECC2
:10EDA00092EE60E00F94F5F188ED92EE60E00F9442
:10EDB000F5F18FED92EE60E00F94F5F18AEE92EEB0
:10EDC00060E00F94F5F183E093EEBDCD87EC92EE19
:10EDD00062E00F94F5F181E40F947BF282E40F94EA
:10EDE0007BF283E40F947BF284E40F947BF285E45E
:10EDF0000F947BF286E40F947BF287E40F947BF20E
:10EE000088E40F947BF28AE40F947BF28BE40F94F6
:10EE10007BF28CE40F947BF299CD88ED92EE62E068
:10EE20000F94F5F1772473948824992409C48FED05
:10EE300092EE62E00F94F5F140910A0250910B02BC
:10EE400060910C0270910D0282E020E10F9491F22A
:10EE500080910A0290910B02A0910C02B0910D02D8
:10EE600080509F4FAF4FBF4F80930A0290930B0289
:10EE7000A0930C02B0930D0269CD8AEE92EE62E08F
:10EE80000F94F5F184EE90EE60E00F94F5F18FECC5
:10EE900091EE60E00F94F5F1662477244301CC5D98
:10EEA000DE4F19821882C452D140D401C301B695F5
:10EEB000A79597958795CA5DDE4F88839983AA8326
:10EEC000BB83C652D140CC5DDE4FA881B981C4520C
:10EED000D1401196CC5DDE4FB983A883C452D14096
:10EEE000CD0162E070E00F9434F2B0E2B093C6005E
:10EEF0008091C00086FFFCCF8091C0008064809329
:10EF0000C000EDE2E093C6008091C00086FFFCCF18
:10EF10008091C00080648093C000F0E2F093C6004E
:10EF20008091C00086FFFCCF8091C00080648093F8
:10EF3000C000CA5DDE4FE880F9800A811B81C6529D
:10EF4000D140BB27A12F902F8F2D0F940DF2CA5DBA
:10EF5000DE4F8881C652D1400F940DF2B0E2FB2EF5
:10EF6000F092C6008091C00086FFFCCF8091C00067
:10EF700080648093C0000DE30093C6008091C000C0
:10EF800086FFFCCF8091C00080648093C00010E2B7
:10EF90001093C6008091C00086FFFCCF8091C00016
:10EFA00080648093C0008BBEF3012791C65DDE4F65
:10EFB0002883CA52D140A22EBB24CC24DD2408943D
:10EFC000611C711C811C911C8BBEF3018791282E42
:10EFD0003324442455240894611C711C811C911C09
:10EFE0008BBEF3013791C55DDE4F3883CB52D140E4
:10EFF0000894611C711C811C911C8BBEF30147910C
:10F00000C45DDE4F4883CC52D140ADEFEA2EAFEF66
:10F01000FA2EAFEF0A2FAFEF1A2F6E0C7F1C801E57
:10F02000911E142D032DF22CEE24EA0CFB1C0C1D5A
:10F030001D1D0F940DF220E22093C6008091C000A8
:10F0400086FFFCCF8091C00080648093C000C65DC5
:10F05000DE4F8881CA52D1400F940DF230E23093D6
:10F06000C6008091C00086FFFCCF8091C000806404
:10F070008093C000C45DDE4F8881CC52D1400F9494
:10F080000DF240E24093C6008091C00086FFFCCFA5
:10F090008091C00080648093C000C55DDE4F888190
:10F0A000CB52D1400F940DF250E25093C6008091A4
:10F0B000C00086FFFCCF8091C00080648093C000B8
:10F0C0008FEFE8168FEFF80680E0080780E018075A
:10F0D00031F484E092EE60E00F94C2F1DFC0D80119
:10F0E000C7018070907CA070B0708050904CA040A0
:10F0F000B040D1F52FEF3FE340E050E0E222F322B1
:10F1000004231523CA5DDE4FA880B980CA80DB8046
:10F11000C652D140AE0CBF1CC01ED11EAA0CBB1CD7
:10F12000CC1CDD1C8EE092EE60E00F94C2F1BB2798
:10F13000A12F902F8F2D0F940DF28E2D0F940DF285
:10F1400030E23093C6008091C00086FFFCCF8091F2
:10F15000C00080648093C0004EE34093C60080915D
:10F16000C00086FFFCCF87C08EE09EEFA0E0B0E03D
:10F17000E822F9220A231B239CE0E91694E9F90608
:10F1800090E0090790E0190709F088C0C45DDE4FE0
:10F19000A881CC52D140EA2EFF2400E010E0102FCD
:10F1A0000F2DFE2CEE24C55DDE4FB881CB52D14031
:10F1B000EB0EF11C011D111DD601C501817090706F
:10F1C000A070B070DC0199278827E80EF91E0A1F8D
:10F1D0001B1F20EF30E040E050E0A222B322C42207
:10F1E000D52241E1AA0CBB1CCC1CDD1C4A95D1F7F1
:10F1F000EA0CFB1C0C1D1D1D81E090E0A0E0B0E0BE
:10F20000282239224A225B2235E1220C331C441C7D
:10F21000551C3A95D1F7E20CF31C041D151D57013E
:10F220006801AA0CBB1CCC1CDD1C85E192EE60E0E1
:10F230000F94C2F1C801AA27BB270F940DF2BB2778
:10F24000A12F902F8F2D0F940DF28E2D0F940DF274
:10F2500090E29093C6008091C00086FFFCCF809121
:10F26000C00080648093C000AEE3A093C60080918C
:10F27000C00086FFFCCF8091C00080648093C000F6
:10F28000C601AA27BB270F940DF2BB27AD2D9C2DDD
:10F290008B2D0F940DF28A2D0F940DF20F94DCF14B
:10F2A000CC5DDE4FE881F981C452D140F99709F471
:10F2B0004DCBF4E0EF2EF12C012D112D6E0C7F1CA7
:10F2C000801E911EF2CD83E093EE62E00F94F5F183
:10F2D0008AE192EE60E00F94C2F18091C00087FF56
:10F2E000FCCF1091C6001F751093C6008091C0001E
:10F2F00086FFFCCF8091C00080648093C0000F9493
:10F30000DCF1812F81548A3108F036C1163409F4BA
:10F3100095C0173490F4133409F44EC0143430F40B
:10F320001134F1F0123409F01DC130C0143409F465
:10F3300059C0153409F016C16BC01A3409F4C4C0A1
:10F340001B3438F4173409F48FC0183409F00AC19B
:10F35000A1C01B3409F4D2C01C3409F003C1E8C0B9
:10F360008FEF81B90DC082B1809582B980E090E0C5
:10F37000E0EDF7E03197F1F70196883C9105C1F790
:10F380008091C00087FFEFCF12B8EFC08FEF84B934
:10F390000DC085B1809585B980E090E0E0EDF7E0A3
:10F3A0003197F1F70196883C9105C1F78091C00033
:10F3B00087FFEFCF15B8D9C08FEF87B90DC088B1DF
:10F3C000809588B980E090E0E0EDF7E03197F1F7C3
:10F3D0000196883C9105C1F78091C00087FFEFCF6F
:10F3E00018B8C3C08FEF8AB90DC08BB180958BB9A7
:10F3F00080E090E0E0EDF7E03197F1F70196883C8E
:10F400009105C1F78091C00087FFEFCF1BB8ADC059
:10F410008FEF8DB90DC08EB180958EB980E090E0F0
:10F42000E0EDF7E03197F1F70196883C9105C1F7DF
:10F430008091C00087FFEFCF1EB897C08FEF80BBD1
:10F440000DC081B3809581BB80E090E0E0EDF7E0F6
:10F450003197F1F70196883C9105C1F78091C00082
:10F4600087FFEFCF11BA81C08FEF83BB0DC084B38C
:10F47000809584BB80E090E0E0EDF7E03197F1F714
:10F480000196883C9105C1F78091C00087FFEFCFBE
:10F4900014BA6BC08FEF809301010FC080910201FD
:10F4A00080958093020180E090E0E0EDF7E03197F5
:10F4B000F1F70196883C9105C1F78091C00087FF64
:10F4C000EDCF1092020151C08FEF809304010FC065
:10F4D0008091050180958093050180E090E0E0ED4A
:10F4E000F7E03197F1F70196883C9105C1F78091DB
:10F4F000C00087FFEDCF1092050137C08FEF8093DA
:10F5000007010FC08091080180958093080180E079
:10F5100090E0E0EDF7E03197F1F70196883C910536
:10F52000C1F78091C00087FFEDCF109208011DC088
:10F530008FEF80930A010FC080910B01809580931B
:10F540000B0180E090E0E0EDF7E03197F1F70196F4
:10F55000883C9105C1F78091C00087FFEDCF1092E4
